{
  "contractName": "MultiAirDropToken",
  "abi": [
    {
      "constant": true,
      "inputs": [],
      "name": "name",
      "outputs": [
        {
          "name": "",
          "type": "string"
        }
      ],
      "payable": false,
      "stateMutability": "view",
      "type": "function"
    },
    {
      "constant": true,
      "inputs": [],
      "name": "totalSupply",
      "outputs": [
        {
          "name": "",
          "type": "uint256"
        }
      ],
      "payable": false,
      "stateMutability": "view",
      "type": "function"
    },
    {
      "constant": true,
      "inputs": [],
      "name": "decimals",
      "outputs": [
        {
          "name": "",
          "type": "uint8"
        }
      ],
      "payable": false,
      "stateMutability": "view",
      "type": "function"
    },
    {
      "constant": true,
      "inputs": [],
      "name": "standard",
      "outputs": [
        {
          "name": "",
          "type": "string"
        }
      ],
      "payable": false,
      "stateMutability": "view",
      "type": "function"
    },
    {
      "constant": true,
      "inputs": [
        {
          "name": "",
          "type": "address"
        }
      ],
      "name": "balanceOf",
      "outputs": [
        {
          "name": "",
          "type": "uint256"
        }
      ],
      "payable": false,
      "stateMutability": "view",
      "type": "function"
    },
    {
      "constant": true,
      "inputs": [],
      "name": "symbol",
      "outputs": [
        {
          "name": "",
          "type": "string"
        }
      ],
      "payable": false,
      "stateMutability": "view",
      "type": "function"
    },
    {
      "constant": true,
      "inputs": [
        {
          "name": "",
          "type": "address"
        },
        {
          "name": "",
          "type": "address"
        }
      ],
      "name": "allowance",
      "outputs": [
        {
          "name": "",
          "type": "uint256"
        }
      ],
      "payable": false,
      "stateMutability": "view",
      "type": "function"
    },
    {
      "inputs": [
        {
          "name": "initialSupply",
          "type": "uint256"
        },
        {
          "name": "tokenName",
          "type": "string"
        },
        {
          "name": "decimalUnits",
          "type": "uint8"
        },
        {
          "name": "tokenSymbol",
          "type": "string"
        }
      ],
      "payable": false,
      "stateMutability": "nonpayable",
      "type": "constructor"
    },
    {
      "anonymous": false,
      "inputs": [
        {
          "indexed": true,
          "name": "from",
          "type": "address"
        },
        {
          "indexed": true,
          "name": "to",
          "type": "address"
        },
        {
          "indexed": false,
          "name": "value",
          "type": "uint256"
        }
      ],
      "name": "Transfer",
      "type": "event"
    },
    {
      "anonymous": false,
      "inputs": [
        {
          "indexed": true,
          "name": "from",
          "type": "address"
        },
        {
          "indexed": true,
          "name": "to",
          "type": "address[]"
        },
        {
          "indexed": false,
          "name": "value",
          "type": "uint256"
        }
      ],
      "name": "TransferMulti",
      "type": "event"
    },
    {
      "constant": false,
      "inputs": [
        {
          "name": "_to",
          "type": "address"
        },
        {
          "name": "_value",
          "type": "uint256"
        }
      ],
      "name": "transfer",
      "outputs": [],
      "payable": false,
      "stateMutability": "nonpayable",
      "type": "function"
    },
    {
      "constant": false,
      "inputs": [
        {
          "name": "_to",
          "type": "address[]"
        },
        {
          "name": "_value",
          "type": "uint256"
        }
      ],
      "name": "transferMulti",
      "outputs": [],
      "payable": false,
      "stateMutability": "nonpayable",
      "type": "function"
    }
  ],
  "bytecode": "0x60806040526040805190810160405280600981526020017f546f6b656e20302e3100000000000000000000000000000000000000000000008152506000908051906020019061004f92919061013a565b5034801561005c57600080fd5b50604051610cf4380380610cf48339810180604052810190808051906020019092919080518201929190602001805190602001909291908051820192919050505083600560003373ffffffffffffffffffffffffffffffffffffffff1673ffffffffffffffffffffffffffffffffffffffff168152602001908152602001600020819055508360048190555082600190805190602001906100fe92919061013a565b50806002908051906020019061011592919061013a565b5081600360006101000a81548160ff021916908360ff160217905550505050506101df565b828054600181600116156101000203166002900490600052602060002090601f016020900481019282601f1061017b57805160ff19168380011785556101a9565b828001600101855582156101a9579182015b828111156101a857825182559160200191906001019061018d565b5b5090506101b691906101ba565b5090565b6101dc91905b808211156101d85760008160009055506001016101c0565b5090565b90565b610b06806101ee6000396000f300608060405260043610610099576000357c0100000000000000000000000000000000000000000000000000000000900463ffffffff16806304f016c91461009e57806306fdde031461010e57806318160ddd1461019e578063313ce567146101c95780635a3b7e42146101fa57806370a082311461028a57806395d89b41146102e1578063a9059cbb14610371578063dd62ed3e146103be575b600080fd5b3480156100aa57600080fd5b5061010c6004803603810190808035906020019082018035906020019080806020026020016040519081016040528093929190818152602001838360200280828437820191505050505050919291929080359060200190929190505050610435565b005b34801561011a57600080fd5b50610123610694565b6040518080602001828103825283818151815260200191508051906020019080838360005b83811015610163578082015181840152602081019050610148565b50505050905090810190601f1680156101905780820380516001836020036101000a031916815260200191505b509250505060405180910390f35b3480156101aa57600080fd5b506101b3610732565b6040518082815260200191505060405180910390f35b3480156101d557600080fd5b506101de610738565b604051808260ff1660ff16815260200191505060405180910390f35b34801561020657600080fd5b5061020f61074b565b6040518080602001828103825283818151815260200191508051906020019080838360005b8381101561024f578082015181840152602081019050610234565b50505050905090810190601f16801561027c5780820380516001836020036101000a031916815260200191505b509250505060405180910390f35b34801561029657600080fd5b506102cb600480360381019080803573ffffffffffffffffffffffffffffffffffffffff1690602001909291905050506107e9565b6040518082815260200191505060405180910390f35b3480156102ed57600080fd5b506102f6610801565b6040518080602001828103825283818151815260200191508051906020019080838360005b8381101561033657808201518184015260208101905061031b565b50505050905090810190601f1680156103635780820380516001836020036101000a031916815260200191505b509250505060405180910390f35b34801561037d57600080fd5b506103bc600480360381019080803573ffffffffffffffffffffffffffffffffffffffff1690602001909291908035906020019092919050505061089f565b005b3480156103ca57600080fd5b5061041f600480360381019080803573ffffffffffffffffffffffffffffffffffffffff169060200190929190803573ffffffffffffffffffffffffffffffffffffffff169060200190929190505050610a80565b6040518082815260200191505060405180910390f35b600082518202600560003373ffffffffffffffffffffffffffffffffffffffff1673ffffffffffffffffffffffffffffffffffffffff168152602001908152602001600020541015151561048857600080fd5b6104dd82845102600560003373ffffffffffffffffffffffffffffffffffffffff1673ffffffffffffffffffffffffffffffffffffffff16815260200190815260200160002054610aa590919063ffffffff16565b600560003373ffffffffffffffffffffffffffffffffffffffff1673ffffffffffffffffffffffffffffffffffffffff16815260200190815260200160002081905550600090505b82518110156105fe576105978260056000868581518110151561054457fe5b9060200190602002015173ffffffffffffffffffffffffffffffffffffffff1673ffffffffffffffffffffffffffffffffffffffff16815260200190815260200160002054610abe90919063ffffffff16565b6005600085848151811015156105a957fe5b9060200190602002015173ffffffffffffffffffffffffffffffffffffffff1673ffffffffffffffffffffffffffffffffffffffff168152602001908152602001600020819055508080600101915050610525565b8260405180828051906020019060200280838360005b8381101561062f578082015181840152602081019050610614565b5050505090500191505060405180910390203373ffffffffffffffffffffffffffffffffffffffff167fa18b0361497be7c196d41cc127306c8890e5d178e22f28910ab0b59b780b9d16846040518082815260200191505060405180910390a3505050565b60018054600181600116156101000203166002900480601f01602080910402602001604051908101604052809291908181526020018280546001816001161561010002031660029004801561072a5780601f106106ff5761010080835404028352916020019161072a565b820191906000526020600020905b81548152906001019060200180831161070d57829003601f168201915b505050505081565b60045481565b600360009054906101000a900460ff1681565b60008054600181600116156101000203166002900480601f0160208091040260200160405190810160405280929190818152602001828054600181600116156101000203166002900480156107e15780601f106107b6576101008083540402835291602001916107e1565b820191906000526020600020905b8154815290600101906020018083116107c457829003601f168201915b505050505081565b60056020528060005260406000206000915090505481565b60028054600181600116156101000203166002900480601f0160208091040260200160405190810160405280929190818152602001828054600181600116156101000203166002900480156108975780601f1061086c57610100808354040283529160200191610897565b820191906000526020600020905b81548152906001019060200180831161087a57829003601f168201915b505050505081565b80600560003373ffffffffffffffffffffffffffffffffffffffff1673ffffffffffffffffffffffffffffffffffffffff16815260200190815260200160002054101515156108ed57600080fd5b61093f81600560003373ffffffffffffffffffffffffffffffffffffffff1673ffffffffffffffffffffffffffffffffffffffff16815260200190815260200160002054610aa590919063ffffffff16565b600560003373ffffffffffffffffffffffffffffffffffffffff1673ffffffffffffffffffffffffffffffffffffffff168152602001908152602001600020819055506109d481600560008573ffffffffffffffffffffffffffffffffffffffff1673ffffffffffffffffffffffffffffffffffffffff16815260200190815260200160002054610abe90919063ffffffff16565b600560008473ffffffffffffffffffffffffffffffffffffffff1673ffffffffffffffffffffffffffffffffffffffff168152602001908152602001600020819055508173ffffffffffffffffffffffffffffffffffffffff163373ffffffffffffffffffffffffffffffffffffffff167fddf252ad1be2c89b69c2b068fc378daa952ba7f163c4a11628f55a4df523b3ef836040518082815260200191505060405180910390a35050565b6006602052816000526040600020602052806000526040600020600091509150505481565b6000828211151515610ab357fe5b818303905092915050565b60008183019050828110151515610ad157fe5b809050929150505600a165627a7a72305820d29ffc22b93740e122ff71b0a0025cce421f4c414f49f28a81b84e75c25c8f680029",
  "source": "pragma solidity ^0.4.18;\n\nimport \"openzeppelin-solidity/contracts/math/SafeMath.sol\";\n\n/**\n// A token that supports batch transaction to multiple addresses\n\nDeploy: 1 - Ropsten, 0x330FfAA810f7873271C4B274975011E7E8f60C40\n2.\n */\ncontract MultiAirDropToken {\n    using SafeMath for uint256;\n    /* Public variables of the token */\n    string public standard = \"Token 0.1\";\n    string public name;\n    string public symbol;\n    uint8 public decimals;\n    uint256 public totalSupply;\n\n    /* This creates an array with all balances */\n    mapping(address => uint256) public balanceOf;\n    mapping(address => mapping(address => uint256)) public allowance;\n\n    /* This generates a public event on the blockchain that will notify clients */\n    event Transfer(address indexed from, address indexed to, uint256 value);\n    event TransferMulti(address indexed from, address[] indexed to, uint256 value);\n\n    /* Initializes contract with initial supply tokens to the creator of the contract */\n    constructor(\n        uint256 initialSupply,\n        string tokenName,\n        uint8 decimalUnits,\n        string tokenSymbol\n    ) public {\n        balanceOf[msg.sender] = initialSupply;\n        // Give the creator all initial tokens\n        totalSupply = initialSupply;\n        // Update total supply\n        name = tokenName;\n        // Set the name for display purposes\n        symbol = tokenSymbol;\n        // Set the symbol for display purposes\n        decimals = decimalUnits;\n        // Amount of decimals for display purposes\n    }\n\n    /* Send coins */\n    function transfer(address _to, uint256 _value) public {\n        require(balanceOf[msg.sender] >= _value);\n        balanceOf[msg.sender] = balanceOf[msg.sender].sub(_value);\n        balanceOf[_to] = balanceOf[_to].add(_value);\n        emit Transfer(msg.sender, _to, _value);\n    }\n\n    /* Send coins */\n    function transferMulti(address[] _to, uint256 _value) public {\n        require(balanceOf[msg.sender] >= (_value * _to.length));\n\n        balanceOf[msg.sender] = balanceOf[msg.sender].sub(_to.length * _value);\n        for (uint i = 0; i<_to.length; i++) {\n            balanceOf[_to[i]] = balanceOf[_to[i]].add(_value);\n\n        }\n        emit TransferMulti(msg.sender, _to, _value);\n    }\n}\n",
  "sourcePath": "/Users/zzn/ws/basic-contracts/eth/contracts/MultiAirDropToken.sol",
  "compiler": {
    "name": "solc",
    "version": "0.4.24+commit.e67f0147.Emscripten.clang"
  },
  "schemaVersion": "2.0.1",
  "updatedAt": "2018-07-04T06:15:00.914Z"
}